{
  "contractName": "Token",
  "abi": [
    {
      "constant": true,
      "inputs": [],
      "name": "name",
      "outputs": [
        {
          "internalType": "string",
          "name": "",
          "type": "string"
        }
      ],
      "payable": false,
      "stateMutability": "view",
      "type": "function"
    }
  ],
  "bytecode": "0x6080604052604051806020016040528060008152506000908051906020019061002992919061003c565b5034801561003657600080fd5b506100e1565b828054600181600116156101000203166002900490600052602060002090601f016020900481019282601f1061007d57805160ff19168380011785556100ab565b828001600101855582156100ab579182015b828111156100aa57825182559160200191906001019061008f565b5b5090506100b891906100bc565b5090565b6100de91905b808211156100da5760008160009055506001016100c2565b5090565b90565b610186806100f06000396000f3fe608060405234801561001057600080fd5b506004361061002b5760003560e01c806306fdde0314610030575b600080fd5b6100386100b3565b6040518080602001828103825283818151815260200191508051906020019080838360005b8381101561007857808201518184015260208101905061005d565b50505050905090810190601f1680156100a55780820380516001836020036101000a031916815260200191505b509250505060405180910390f35b60008054600181600116156101000203166002900480601f0160208091040260200160405190810160405280929190818152602001828054600181600116156101000203166002900480156101495780601f1061011e57610100808354040283529160200191610149565b820191906000526020600020905b81548152906001019060200180831161012c57829003601f168201915b50505050508156fea265627a7a723158208d24b851ddafa8d8ac8bc4d47c9185703e9a3459ff70c4530038c0fd7898996364736f6c63430005100032",
  "source": "pragma solidity >=0.4.22 <0.9.0;\r\n\r\ncontract Token{\r\n    string public name=\"\";\r\n}",
  "sourcePath": "D:\\Personal projects\\Blockchain-Exchange\\blockchain-exchange\\src\\contracts\\Token.sol",
  "compiler": {
    "name": "solc",
    "version": "0.5.16+commit.9c3226ce.Emscripten.clang"
  },
  "schemaVersion": "3.4.4",
  "updatedAt": "2022-01-01T17:49:07.553Z",
  "networkType": "ethereum",
  "devdoc": {
    "methods": {}
  },
  "userdoc": {
    "methods": {}
  }
}